:020000040800F2
:1080000002020202FFFFFFFF32303438000001009D
:108010000000000030313330323032353030303013
:1080200030303030303032323533323500000000FD
:108030000000000000000000000000000000000040
:108040000000000000000000000000000000000030
:108050000000000000000000000000000000000020
:108060000000000000000000000000000000000010
:04807000B1870108CB
:1080740000000000000000000000000000000000FC
:1080840000000000000000000000000000000000EC
:1080940000000000000000000000000000000000DC
:1080A40000000000000000000000000000000000CC
:1080B40000000000000000000000000000000000BC
:1080C40000000000000000000000000000000000AC
:1080D400000000000000000000000000000000009C
:1080E400000000000000000000000000000000008C
:1080F400000000000000000000000000000000007C
:10810400000000000000000000000000000000006B
:10811400000000000000000000000000000000005B
:10812400000000000000000000000000000000004B
:10813400000000000000000000000000000000003B
:10814400000000000000000000000000000000002B
:10815400000000000000000000000000000000001B
:10816400000000000000000000000000000000000B
:1081740000000000000000000000000000000000FB
:1081840000000000000000000000000000000000EB
:1081940000000000000000000000000000000000DB
:1081A40000000000000000000000000000000000CB
:1081B40000000000000000000000000000000000BB
:1081C40000000000000000000000000000000000AB
:1081D400000000000000000000000000000000009B
:1081E400000000000000000000000000000000008B
:1081F400000000000000000000000000FCFF02205E
:10820400311C0208C5870108D987010805880108BF
:1082140031880108458801080000000000000000C2
:108224000000000000000000811C0208811C0208FC
:108234000000000061840008B1920008811C02085B
:10824400811C0208811C0208811C0208811C02088E
:10825400811C020875A20108A1A20108CDA201088F
:10826400F9A2010825A30108811C0208811C020847
:10827400A5AB0108811C0208811C0208B5AB0108EA
:10828400811C02083D950108019A0108E59901083D
:10829400811C02081D9A010851A30108811C0208CF
:1082A400811C0208811C0208811C0208811C02082E
:1082B40031C201086DC2010849AA01086DAA01086A
:1082C400811C0208811C0208A3B70108AFB701088A
:1082D4005DCA0108811C02086DCA0108CDA301080A
:1082E400811C0208811C0208811C0208811C0208EE
:1082F400811C0208811C0208811C0208811C0208DE
:10830400811C0208A9C20108BBB70108811C02082C
:10831400811C0208E5C2010825C30108E9B7010868
:10832400F5B70108811C0208811C0208619F01083D
:10833400811C0208811C0208559A0108399A010817
:10834400811C0208719A0108811C0208811C020820
:10835400811C0208811C0208811C0208811C02087D
:10836400811C0208811C0208811C0208811C02086D
:10837400811C0208811C020800000000811C020804
:10838400811C0208811C0208811C0208C7B701086D
:10839400D1B70108DDB70108811C02080000000004
:0883A40000000000811C02082A
:1083B000EFF3098141B1F1EE101A40F8041D20EDF0
:1083C000200A3B490A6810607047B0EC200A02C8D6
:1083D000E1EE101A37490A681060704772B64EF61F
:1083E0002250CEF2000040F2FF01C0F20001017005
:1083F00040F62400C2F20000016881F3088841F2CF
:10840000E520C2F2000041F2E421C2F200010A7844
:10841000027040F67065C2F2000540F66C61C2F26F
:1084200000010A682A60106880F30988EFF314805D
:1084300040F0020080F31488BFF36F8FBDE8F00FA7
:108440000FBCBDE8005006BC62B608471A484FF0A2
:1084500080510160704718484FF0805101607047AB
:1084600072B6EFF3098020E9F00F40F67065C2F2B2
:1084700000052E683060744600F0CEFE41F2E52023
:10848000C2F2000041F2E421C2F200010A78027057
:1084900040F66C61C2F200010A682A6044F0F40EF2
:1084A0001068B0E8F00F80F3098862B670470000EA
:1084B000700E00206C0E002004ED00E072B67047D4
:1084C00062B67047EFF3108072B6704780F3108881
:1084D000704730BF704720BF7047B0FA80F07047D8
:1084E00090FAA0F0B0FA80F0704790FAA0F07047D0
:1084F00081F0004102E000BF83F0004330B54FEA55
:1085000041044FEA430594EA050F08BF90EA020FC1
:108510001FBF54EA000C55EA020C7FEA645C7FEA54
:10852000655C00F0E2804FEA5454D4EB5555B8BF77
:108530006D420CDD2C4480EA020281EA030382EAE8
:10854000000083EA010180EA020281EA0303362D7A
:1085500088BF30BD11F0004F4FEA01314FF4801C4D
:108560004CEA113102D0404261EB410113F0004F5F
:108570004FEA03334CEA133302D0524263EB430316
:1085800094EA050F00F0A780A4F10104D5F1200EB4
:108590000DDB02FA0EFC22FA05F2801841F100010F
:1085A00003FA0EF2801843FA05F359410EE0A5F1E3
:1085B00020050EF1200E012A03FA0EFC28BF4CF014
:1085C000020C43FA05F3C01851EBE37101F00045CA
:1085D00007D54FF0000EDCF1000C7EEB00006EEBD7
:1085E0000101B1F5801F1BD3B1F5001F0CD3490861
:1085F0005FEA30004FEA3C0C04F101044FEA4452B8
:1086000012F5800F80F09A80BCF1004F08BF5FEA3E
:10861000500C50F1000041EB045141EA050130BD1E
:108620005FEA4C0C404141EB0101013C28BFB1F530
:10863000801FE9D291F0000F04BF01460020B1FA7B
:1086400081F308BF2033A3F10B03B3F120020CDA4E
:108650000C3208DD02F1140CC2F10C0201FA0CF02C
:1086600021FA02F10CE002F11402D8BFC2F1200C91
:1086700001FA02F120FA0CFCDCBF41EA0C01904047
:10868000E41AA2BF01EB0451294330BD6FEA040490
:108690001F3C1CDA0C340EDC04F11404C4F120027B
:1086A00020FA04F001FA02F340EA030021FA04F38D
:1086B00045EA030130BDC4F10C04C4F1200220FAE4
:1086C00002F001FA04F340EA0300294630BD21FA22
:1086D00004F0294630BD94F0000F83F4801306BFE8
:1086E00081F480110134013D4EE77FEA645C18BFDC
:1086F0007FEA655C29D094EA050F08BF90EA020F73
:1087000005D054EA000C04BF1946104630BD91EA6A
:10871000030F1EBF0021002030BD5FEA545C05D16D
:108720004000494128BF41F0004130BD14F58004AC
:108730003CBF01F5801130BD01F0004545F0FE4120
:1087400041F470014FF0000030BD7FEA645C1ABF55
:10875000194610467FEA655C1CBF0B46024650EA8C
:10876000013406BF52EA033591EA030F41F40021B8
:1087700030BD00BF90F0000F04BF0021704730B53E
:108780004FF4806404F132044FF000054FF0000113
:1087900050E700BF90F0000F04BF0021704730B5D4
:1087A0004FF4806404F1320410F0004548BF4042A9
:1087B0004FF000013EE700BF42004FEAE2014FEAFE
:1087C00031014FEA02701FBF12F07F4393F07F4FD9
:1087D00081F06051704732F07F4208BF704793F0DC
:1087E0007F4F04BF41F40021704730B54FF46074EF
:1087F00001F0004521F000411CE700BF50EA0102F2
:1088000008BF704730B54FF000050AE050EA01029A
:1088100008BF704730B511F0004502D5404261EB0A
:1088200041014FF4806404F132045FEA915C3FF44B
:10883000D8AE4FF003025FEADC0C18BF03325FEAE8
:10884000DC0C18BF033202EBDC02C2F1200300FA99
:1088500003FC20FA02F001FA03FE40EA0E0021FABE
:1088600002F11444BDE600BF4FF0FF3C06E000BF3C
:108870004FF0010C02E000BF4FF0010C4DF804CDA9
:108880004FEA410C7FEA6C5C4FEA430C18BF7FEA69
:108890006C5C1BD001B050EA410C0CBF52EA430C97
:1088A00091EA030F02BF90EA020F0020704710F117
:1088B000000F91EA030F58BF994208BF90422CBFA6
:1088C000D8176FEAE37040F0010070474FEA410C9F
:1088D0007FEA6C5C02D150EA013C07D14FEA430CBD
:1088E0007FEA6C5CD6D152EA033CD3D05DF8040B2E
:1088F000704700BF8446104662468C461946634660
:1089000000E000BF01B5FFF7B7FF002848BF10F136
:10891000000F01BD4DF808EDFFF7F4FF0CBF01207B
:1089200000205DF808FB00BF4DF808EDFFF7EAFFF7
:1089300034BF012000205DF808FB00BF4DF808EDB2
:10894000FFF7E0FF94BF012000205DF808FB00BFA7
:108950004DF808EDFFF7CEFF94BF012000205DF831
:1089600008FB00BF4DF808EDFFF7C4FF34BF01203E
:1089700000205DF808FB00BF4FEA410212F500122B
:1089800015D211D56FF47873B3EB625212D94FEA56
:10899000C12343F0004343EA505311F0004F23FA40
:1089A00002F018BF404270474FF00000704750EA95
:1089B000013005D111F0004008BF6FF00040704752
:1089C0004FF00000704700BF53B94AB9002908BFF3
:1089D00000281CBF4FF0FF314FF0FF3000F0E2B82D
:1089E000ADF1080C6DE904CE19F064F9DDF804E08E
:1089F000DDE9022304B0704700F1340191E838004A
:108A00009C46A6464CF8045D90E8FF0FE54600BD85
:108A100090EC210B704700BF80EC210B704700BF2A
:108A200090EC200B704700BF80EC200B704700BF1C
:108A3000D0EC200B704700BFC0EC200B704700BF8C
:108A4000F0EC0201F0EC0211F0EC0221F0EC02314A
:108A5000F0EC0241F0EC0251F0EC0261F0EC02713A
:108A6000F0EC0281F0EC0291F0EC02A1F0EC02B12A
:108A7000F0EC02C1F0EC02D1F0EC02E1F0EC02F11A
:108A8000704700BFE0EC0201E0EC0211E0EC0221D3
:108A9000E0EC0231E0EC0241E0EC0251E0EC02617A
:108AA000E0EC0271E0EC0281E0EC0291E0EC02A16A
:108AB000E0EC02B1E0EC02C1E0EC02D1E0EC02E15A
:108AC000E0EC02F1704700BFB0FC0181B0FC019105
:108AD000B0FC01A1B0FC01B1704700BFA0FC018156
:108AE000A0FC0191A0FC01A1A0FC01B1704700BF56
:108AF000EC4600B52DE900502DE9FF1F4FF00003B3
:108B00002DE90C0001A919F08FFBDDF840E012B04F
:108B1000704700BFEC4600B52DE900502DE9FF1F5E
:108B20004FF000032DE90C0001A919F0B9FBDDF8A5
:108B300040E012B0704700BFEC4600B52DE9005090
:108B40002DE9FF1F4FF000032DE90C0001A919F0DA
:108B5000C9FBDDF840E012B0704700BFEC4600B53D
:108B60002DE900502DE9FF1F4FF000032DE90C0007
:108B700001AB19F08DFBDDF840E012B0704700BF8B
:108B8000EC4600B52DE900502DE9FF1F4FF0000322
:108B90002DE90C0001AA19F0FDFBDDF840E012B050
:108BA000704700BF704700BF10F8012B11F8013B60
:108BB000012A28BF9A42F7D0D01A7047034613F80B
:108BC000012B002AFBD1181A013870470000000061
:108BD00001F0FF01102A2BDB10F0070F08D010F86E
:108BE000013B013A8B422DD010F0070F42B3F6D172
:108BF000F0B441EA012141EA014122F007047FF08B
:108C000000070023F0E80256083C85EA010586EAE1
:108C1000010685FA47F5A3FA87F586FA47F6A5FA1D
:108C200087F68EB9EED1F0BC01F0FF0102F0070229
:108C300032B110F8013B013A83EA010313B1F8D1D4
:108C40000020704701387047002D06BF35460338B5
:108C5000073815F0010F07D1013015F4807F02BFEE
:108C6000013015F4C03F0130F0BC0138704700BF3F
:108C70007BB972B90029BEBF00204FF0004106E069
:108C800008BF00281CBF6FF000414FF0FF30FFF716
:108C900089BFADF1080C6DE904CE002909DB002B7A
:108CA0001ADB19F007F8DDF804E0DDE9022304B06F
:108CB0007047404261EB4101002B1BDB18F0FAFFCB
:108CC000DDF804E0DDE9022304B0404261EB41013C
:108CD000524263EB43037047524263EB430318F085
:108CE000E9FFDDF804E0DDE9022304B0404261EB76
:108CF00041017047524263EB430318F0DBFFDDF89C
:108D000004E0DDE9022304B0524263EB4303704701
:108D10000348044B834202D0034B03B1184770470A
:108D2000BC060020BC060020000000000548064BE1
:108D30001B1AD90F01EBA301491002D0034B03B159
:108D400018477047BC060020BC0600200000000049
:108D500010B5064C237843B9FFF7DAFF044B13B183
:108D60000448AFF300800123237010BDC00600202B
:108D700000000000704B020808B5054B1BB1054907
:108D80000548AFF30080BDE80840FFF7CFBF00BF44
:108D900000000000C4060020704B0208002070474D
:108DA00002440346934200D1704703F8011BF9E7E0
:108DB00070B50D4D0D4C641BA4100026A64209D1C0
:108DC0000B4D0C4C1BF0D4FE641BA4100026A642D5
:108DD00005D170BD55F8043B98470136EEE755F8CC
:108DE000043B98470136F2E7FC970208FC9702081B
:108DF000FC97020800980208704770477047704758
:108E000038B50546002941D051F8043C0C1F002B11
:108E1000B8BFE41800F0E0F81D4A136833B9636086
:108E200014602846BDE8384000F0DCB8A34208D9F9
:108E3000206821188B4201BF19685B6809182160FE
:108E4000EDE71A465B680BB1A342FAD911685018D6
:108E5000A0420BD120680144501883421160E0D138
:108E600018685B68536008441060DAE702D90C2385
:108E70002B60D6E7206821188B4204BF19685B6815
:108E8000636004BF091821605460CAE738BD00BFA1
:108E90002008002070B50F4E0C463168054611B908
:108EA00000F0A6F830602146284600F0A1F8431CE7
:108EB00003D14FF0FF34204670BDC41C24F00304DE
:108EC000A042F8D0211A284600F092F80130F2D1E1
:108ED000EFE700BF1C0800202DE9F843CD1C25F06A
:108EE000030508350C2D38BF0C25002D064601DB87
:108EF000A94204D90C2333600020BDE8F883DFF8D1
:108F0000D48000F069F8D8F800301C4644BB2946EC
:108F10003046FFF7BFFF431C044658D1D8F8004045
:108F20002746002F43D1002C4BD0236839463046CA
:108F300004EB030900F05CF8814542D121686D1A09
:108F400029463046FFF7A6FF01303AD023682B446C
:108F50002360D8F800305A6862BBC8F800700FE090
:108F60002268521B20D40B2A17D96119A34225600D
:108F700018BF5960636808BFC8F8001062514B60A1
:108F8000304600F02FF804F10B00231D20F00700FD
:108F9000C21A1CBF1B1AA350AFE76268A3420CBFE2
:108FA000C8F800205A60EBE723466468AEE73C4609
:108FB0007F68B6E71A465B68A342FBD10023536083
:108FC000DEE70C233360304600F00CF894E70560D0
:108FD000D6E700BF200800200148FFF70EBF00BF02
:108FE0001A0800200148FFF70ABF00BF1A08002036
:108FF00038B5064D0023044608462B601BF0A0FD43
:10900000431C02D12B6803B1236038BD1408002033
:1090100008B5024B1B6803B1984708BDDC1300205C
:10902000054B1A68054B1B6803EB8203044A136067
:1090300023F0070313607047F44B0208F84B020853
:109040002408002008B5024B1B6803B1984708BDEF
:10905000D813002008B5024B1B6803B1984708BD20
:10906000E813002008B5024B1B6803B1984708BD00
:10907000E013002010B4019C02EB840222F00702EE
:109080004FF0807442F8044C42F8080C604842F8F3
:109090000C0C4FF0123042F8100C4FF0033042F835
:1090A000140C4FF0023042F8180C42F81C3C42F805
:1090B000201C4FF0113342F8243C4FF0103342F89B
:1090C000283C4FF0093342F82C3C4FF0083342F86B
:1090D000303C4FF0073342F8343C4FF0063342F84F
:1090E000383C4FF0053342F83C3CA2F140004FF0D1
:1090F000043342F8403CBDF8083013F0040F00F090
:1091000084804FF0007342F8443C424B42F8483CA4
:10911000A3F5002342F84C3CA3F5002342F8503C51
:10912000A3F5002342F8543CA3F5002342F8583C31
:10913000A3F5002342F85C3CA3F5002342F8603C11
:10914000A3F5002342F8643CA3F5002342F8683CF1
:10915000A3F5002342F86C3CA3F5002342F8703CD1
:10916000A3F5002342F8743CA3F5002342F8783CB1
:10917000A3F5002342F87C3CA3F5002342F8803C91
:109180004FF0834342F8843CA3F5801342F8883CB7
:10919000A3F5801342F88C3CA3F5801342F8903C71
:1091A000A3F5801342F8943CA3F5801342F8983C51
:1091B000A3F5801342F89C3CA3F5801342F8A03C31
:1091C0004FF0824342F8A43CA3F5001342F8A83CB8
:1091D000A3F5001342F8AC3CA3F5001342F8B03CF1
:1091E0004FF0814342F8B43CA3F5800342F8B83C09
:1091F0004FF0804342F8BC3C4FF07E5342F8C03CF5
:10920000A2F1C400002342F8C43C5DF8044B70474F
:10921000D9B700080000F84110B51D4B1B68B3F822
:10922000442012F0040F2AD11A4B1B68B3F84420D3
:1092300012F0040F27D1184B1B6803B198470EF0AA
:10924000CBFA134B1B68134A11688B4209D0D3F831
:109250009420821AC3F89020D3F898402244C3F88F
:109260009820C1F89400D3F8B0100C4A12689142CB
:1092700001D2C3F8B020094B00221A6010BD186853
:10928000FFF796F8D0E71868FFF79FF8D3E700BF1D
:10929000700E00206C0E0020D41300204C11002012
:1092A00008B5024B1B6803B1984708BDD0130020D6
:1092B00008B5FFF707F9054A137801331370FFF774
:1092C00005F902F013FF00F03BF808BD0A13002077
:1092D00001384FF0E0235861D3F8202D22F07F426F
:1092E000C3F8202D1A6942F005021A611A6942F08A
:1092F00002021A617047704708B5FFF7E3F8064AA3
:10930000136801331360054A136801331360FFF7D4
:10931000DDF8FFF77DFEF0E7CC13002038110020C8
:10932000054B1B78012B06D1044B1B78F92B02D877
:109330000133024A13707047091300200A130020FA
:109340001F4B1B78012B00D0704710B5FFF7BAF800
:1093500004461C4B1B782BB3013BDBB2194A13703C
:109360001BBB194B1B781BBB01F09EFA174A1070F0
:1093700000EB4003164A52F82330164A1360164A8F
:109380001268934217D0D3F88C200132C3F88C2096
:10939000124A136801331360FFF75DF82046FFF7A8
:1093A00095F810BDFFF792F8FBE7FFF78FF8F8E7A5
:1093B000FFF78CF8F5E72046FFF788F8F1E700BFE4
:1093C000091300200A13002048110020E412002095
:1093D0005C1100206C0E0020700E00206410002034
:1093E000014B01221A70704758110020174B1B784F
:1093F00013B9174B1B7803B1704710B5FFF762F82C
:10940000044601F051FA134B187000EB4000124B68
:1094100053F82030114A1360114A1268934210D059
:10942000D3F88C200132C3F88C200E4A1368013324
:109430001360FFF70BF82046FFF748F8BFF36F8F74
:1094400010BD2046FFF742F8FAE700BF0A130020DC
:1094500048110020E41200205C1100206C0E002056
:10946000700E00206410002010B540B10446194B66
:109470001B78012B06D045F68B63038010BD0FF0DF
:10948000EBF8FBE7144B1B88042B06D9134B1B7816
:109490003BB145F68A630380F0E745F68C630380B1
:1094A000ECE701F001FA0E4B18700E4B187000EB50
:1094B00040000D4B53F820300C4A13600C4A1360E7
:1094C000064B01221A70FEF789FF43F69923238089
:1094D000D4E700BF081300205E100020091300200D
:1094E000E4120020E51200205C1100206C0E002028
:1094F000700E002000B58BB000230D4A1360089059
:109500000B2207920693059304930A4A126803926A
:10951000094A12680292094A126801921F220092B7
:10952000074A0849084801F07FFF0BB05DF804FBCB
:10953000CC130020FC4B0208004C0208044C02082B
:10954000F9920008084C02080C130020A0F84620ED
:1095500001634FF0000C0CE000234B600B600B61CB
:109560004B610B83CB61886020310CF1010C1FFA39
:109570008CFC9445F0D3704738B14268C1F8BC20E8
:10958000826892689268C261704791F83430022B09
:1095900005D0072B07D0064BC1F8BC307047054BF0
:1095A000C1F8BC307047044BC1F8BC30704700BFF5
:1095B000344C02081C4C0208284C0208054BC1F828
:1095C000BC3083681BB19B689B68C3617047014BCB
:1095D000C3617047344C0208002303604360038179
:1095E00070478B6893F837C0036853B10289013222
:1095F000028173B19A6892F83720624509D85B6896
:10960000F7E70123038100234B600B600160416099
:10961000704733B11A6852B10A604B6051601960EB
:1096200070474B6043680B60596041607047196038
:109630000A604B600160704703685B6863B10B6848
:109640006BB14A6882B15A6013600389013B0381A0
:1096500000234B600B60704703604360F5E74B6885
:1096600000221A600360F0E75A604360EDE770B5CE
:10967000056BB0F8464002E02035013CA4B27CB155
:10968000EB6803F108069B685B68002BF4D0294661
:109690003046FFF7D1FF29463046FFF7A2FFEBE740
:1096A00070BD70B5056B8DB10646B0F8464007E059
:1096B000E86829460830FFF7BFFF2035013CA4B217
:1096C000002CF5D10023A6F84630336370BD30B4CA
:1096D0000C6BB1F8461002E02034013989B239B17F
:1096E000E5688542F8D1206162612383029BE361D2
:1096F00030BC704700231F2B0FD810B4074C03EB6E
:1097000043029100601800220281625042600133DE
:109710001F2BF3D95DF8044B704770475C11002094
:1097200038B5F8B10546FFF77BFC00233D4A1370BE
:109730003D4A13703D4A13703D4A13603D4A136021
:109740003D4A13703D4A13703D4A13603D4A136011
:109750003D4A13603D4A13703D4B1A685AB13D4B68
:109760001B6806E00EF078FF23E0013B002142F881
:10977000041B002BF9D10024374B1C60374B1C60B5
:10978000374B1C60374B1C60374B1C60374B1C60E1
:10979000374B1C60374B1C7001F07AF8FFF7AAFFBB
:1097A000354B1C60354B1C80284600F0C7FD2B88CC
:1097B00003B138BD284600F0CDFD2B88002BF8D131
:1097C0002F4A14602F4A14802F4A14602F4A1480A5
:1097D0002F4A14602F4A1480284601F0B5FD2B88CB
:1097E000002BE6D12846FFF785FE2B88002BE0D121
:1097F000284602F083FA2B88002BDAD1284601F0A4
:10980000E1FB2B88002BD4D1284602F0CFFD2B881A
:10981000002BCED100F036FAFFF76DFD1E4B012272
:109820001A70C6E70A13002009130020481100200F
:10983000700E00206C0E0020E5120020E4120020C3
:1098400054110020501100204C110020581100200C
:10985000F84B0208F44B0208E8130020E413002040
:10986000E0130020DC130020D8130020D4130020C4
:10987000D01300205C1000200413002000130020EF
:10988000E8120020E6120020E0120020DC12002086
:1098900044110020421100200813002010B590F858
:1098A000373003EB4301134A52F8214094B1114A77
:1098B00003EB430C02EB8C0EBEF808100131AEF83E
:1098C000081004610021416152F82C10486142F8EF
:1098D0002C0010BD02EB81044FF0010CA4F808C06D
:1098E00000240461446142F8210002EB81025060CF
:1098F000EFE700BF5C11002010B490F8373003EBA5
:109900004301164A52F82120BAB1144903EB43022D
:1099100001EB8202B2F808C00CF1010CA2F808C0F9
:109920000024046152684261106103EB430301EBC0
:10993000830148605DF8044B7047084A02EB8104DC
:109940004FF0010CA4F808C000240461446142F8FF
:10995000210002EB81025060ECE700BF5C110020A7
:1099600010B5044690F8370000F0A8FF94F83720AF
:10997000054B1B789A4203D02046FFF78FFF10BD9E
:109980002046FFF7B9FFFAE7E512002030B583B0B3
:1099900005460C4691F83610032921D90639C9B27B
:1099A00001293ED894F83410032946D0A265A4F8C2
:1099B0005C30069BA36435B12046FFF772FE21465A
:1099C0002846FFF7FBFD94F83630072B3BD00423E5
:1099D00084F83630002384F8353084F8343020E0C1
:1099E00002291ED394F8341003291CD0A265A4F8D0
:1099F0005C30069BA36435B12046FFF752FE21463A
:109A00002846FFF7DBFD94F83630032B11D02046B3
:109A1000FFF7A6FF002384F8363084F8353084F849
:109A2000343003B030BD069900912146FFF74FFE58
:109A3000E1E7204602F032FAE9E706990091214673
:109A4000FFF745FEB7E7204602F028FABFE700001F
:109A500038B5044690F837304069226988B103EB85
:109A6000430C184901EB8C01B1F808C00CF1FF3C24
:109A7000A1F808C0026112B3506100236361236141
:109A800038BD72B10F4D03EB430105EB810108892D
:109A9000013808810021516103EB430345F823207D
:109AA000EBE7084A03EB43018D0002EB81010881DB
:109AB0005051486094F8370000F00CFFDDE7486033
:109AC000DBE700BF5C11002008B5054B1B78012BBC
:109AD00000D008BD0DF080FE024B1860F9E700BF12
:109AE000481100205411002038B558B10446144BD9
:109AF0001B7853B9134B1B78012B0AD045F68963A9
:109B0000038005E00EF0A8FD02E046F662530380F4
:109B100038BD0D4B1B78F92B03D945F2092303807F
:109B2000F6E7FEF7CFFC0546074A137801331370BA
:109B3000FFF7CAFF2846FEF7C9FC00232380E7E7AA
:109B40000A130020091300204811002008B50B4B10
:109B50001B7803B108BD0DF03FFE094B1B68C01A0E
:109B6000084B1B68834201D2064B1860064B1B68EA
:109B70008342EFD2044B1860ECE700BF481100208D
:109B800054110020501100204C11002038B558B15C
:109B90000446194B1B7853B9184B1B78012B0AD07C
:109BA00045F68963038005E00EF056FD02E046F6B7
:109BB0006553038038BD124B1B781BB946F66453BE
:109BC0000380F7E7FEF77EFC05460D4A1378013B5C
:109BD000DBB213704BB9FFF7B9FF2846FEF776FCEE
:109BE000FFF704FC00232380E4E7FEF76FFC46F652
:109BF00063532380DEE700BF0A130020091300200F
:109C00004811002010B5044631B9022380F83630DF
:109C10002046FFF71DFF10BD0A460146034802F02B
:109C2000BDF8032384F83630F2E700BF840F00202C
:109C300070B505460C461249086880F834200022A9
:109C400080F835201946FFF7DDFF94B104F10806CE
:109C5000EC60012229460A4B1868FFF777FC294679
:109C60003046FFF7BEFC064B19682046FFF784FC20
:109C700070BD034B1B680022A3F846201A63F2E76D
:109C8000700E00207047000010B5064C2468E26793
:109C9000A4F884300023C4F88030029B0122FFF72F
:109CA000C7FF10BD700E00202DE9F04F8DB0179F3B
:109CB000E7B105460E4692461C46A34B93F800902A
:109CC000B9F1000F17D1F8B148F208039C4249D806
:109CD000B4F5004F1ED8082C2CD823B223B34FF470
:109CE0008B73E34013F0010F32D11DE00EF0B4FC92
:109CF0004FF0000804E046F2AE133B804FF000083E
:109D000040460DB0BDE8F08F45F6C3533B804FF0A1
:109D10000008F5E704F5FF437F339BB28B2222FA5C
:109D200003F313F0010F13D145F625633B804FF089
:109D30000008E5E7B4F5847FF6D8B4F5807FF3D961
:109D4000A4F2011292B28B23D34013F0010FEBD097
:109D50002A687E4B9A4217D045F6C4533B804FF099
:109D60000008CDE748F208139C42DDD8B4F5014F56
:109D7000DAD904F5FD437F339BB28B2222FA03F339
:109D800013F0010FE4D1CFE714F4807F01D04FF03E
:109D90000109169B13B10023169A136004F00F0BF0
:109DA000FEF790FB03900BF1FF33072B00F21681B7
:109DB000DFE813F09400DB00140108001401140123
:109DC00014015A002B6A03EA060836EA030223D07C
:109DD00014F4004F36D15E4B1B78002B3BD1CDF8ED
:109DE00000A023463246294604A8FFF74DFF0398FA
:109DF000FEF76CFBFFF7FAFAFEF764FB0446554BDF
:109E00001A6892F83530032B00F23481DFE813F042
:109E1000EF000E0126011A01B9F1010F0ED04D4BD2
:109E20001B68C3F88080169B13B16B6A169A136087
:109E30000398FEF74BFB00233B8061E723EA08030E
:109E40002B62ECE70398FEF741FB46F2B0133B8030
:109E50004FF0000854E70398FEF738FB46F66353CB
:109E60003B804FF000084BE72B6A13EA060811D13C
:109E700014F4004F24D1364B1B7843BBCDF800A01F
:109E800023463246294604A8FFF7FEFE0398FEF754
:109E90001DFBAFE7B9F1010F0ED02E4B1B68C3F8C5
:109EA0008080169B13B16B6A169A13600398FEF7B5
:109EB0000DFB00233B8023E723EA08032B62ECE73A
:109EC0000398FEF703FB46F2B0133B8018E70398B4
:109ED000FEF7FCFA46F663533B8011E72B6A26EA4D
:109EE0000308334212D014F4004F24D1184B1B78CE
:109EF000002B31D1CDF800A023463246294604A8D4
:109F0000FFF7C2FE0398FEF7E1FA73E7B9F1010F1C
:109F10000ED0104B1B68C3F88080169B13B16B6A80
:109F2000169A13600398FEF7D1FA00233B80E7E608
:109F300033432B62EDE70398FEF7C8FA46F2B013FD
:109F40003B804FF00008DBE60A130020464C4147F7
:109F500048110020700E00200398FEF7B7FA46F66D
:109F600063533B804FF00008CAE62B6A36EA0308C9
:109F700011D114F4004F23D14E4B1B783BBBCDF8CD
:109F800000A023463246294604A8FFF77DFE039829
:109F9000FEF79CFA2EE7B9F1010F0ED0464B1B6875
:109FA000C3F88080169B13B16B6A169A13600398EE
:109FB000FEF78CFA00233B80A2E633432B62EDE7E9
:109FC0000398FEF783FA46F2B0133B8098E60398B5
:109FD000FEF77CFA46F663533B8091E60398FEF762
:109FE00075FA45F625633B804FF0000888E6169B1E
:109FF00013B1936C169A136000233B803B88002BAF
:10A0000054D12D4B1B68D3F88080B9F1010F3ED19C
:10A01000BBF1040F37D033D80BF1FF339BB2012BC8
:10A020003BD82B6A43EA08032B6230E0169B13B13E
:10A03000936C169A13602046FEF748FA46F2A9136D
:10A040003B80DBE7169B13B10023169A1360204672
:10A05000FEF73CFA47F2D9233B80CFE7169B13B1BA
:10A06000936C169A13602046FEF730FA45F6C253F9
:10A070003B80C3E7FEF72AFA46F62E633B80BDE736
:10A08000BBF1080F09D12B6A23EA08032B62204693
:10A09000FEF71CFA00233B8032E62046FEF716FA54
:10A0A00045F625633B804FF0000829E64FF0000895
:10A0B00026E600BF48110020700E0020064BC36149
:10A0C00000234361054B1B6823B183615861034B37
:10A0D000186070478361FAE7344C020804130020CB
:10A0E0002DE9F0412BB304460E4615461F46184B8A
:10A0F0001B78012B20D0174B1B780BBB20B3FEF72E
:10A10000E1F98046144B2360666025620025656294
:10A1100004F10800FFF760FA2046FFF7CFFF0F4A6F
:10A120001388013313804046FEF7D0F93D80BDE827
:10A13000F0810EF091FAFAE744F251633B80F6E7C2
:10A1400042F6E1633B80F2E745F6C3533B80EEE71E
:10A15000581100200A130020464C414700130020EC
:10A1600010B50446C0F88010002380F8353080F820
:10A170003430826490F83630032B07D9063BDBB2CB
:10A18000012B0DD8042380F8363009E0022B07D3C9
:10A19000032B09D02046FFF7E3FB002384F8363079
:10A1A0002046FFF77EFA10BD01F078FEF2E70000CE
:10A1B0002DE9F04105460C4616461F46FEF782F98A
:10A1C0008046B6F5004F15D007D89EB1012E08D1B4
:10A1D0002B6A23EA04032B620FE048F201039E423C
:10A1E000F6D04046FEF772F945F62563069A1380CD
:10A1F00000245BE02B6A23432B626F62AC680CB1D6
:10A20000A06810E04046FEF761F90023069A13802B
:10A210002C6A4BE02A6AC36F02EA030193431FD002
:10A22000002C46D0A068002843D06468B0F88410A1
:10A2300001F00F010139072930D801A353F821F0AB
:10A2400079A200088DA200089DA2000815A20008AE
:10A250009DA200089DA200089DA2000869A2000816
:10A260003A46FFF77DFFDBE7296AC36F1940D7D075
:10A270003A46FFF775FFD3E72A6AC36F23EA020164
:10A280001A42CDD13A46FFF76BFFC9E72B6AC16F7F
:10A290009943C5D03A46FFF763FFC1E74046FEF752
:10A2A00015F943F6FF23069A138000242046BDE8E3
:10A2B000F0814046FEF70AF916F4004F08D0FEF789
:10A2C00001F92C6AFEF702F90023069A1380EDE7E4
:10A2D000FFF78CF8F3E700BFF0B583B083B1044615
:10A2E0000E4615461F4678B1012A12D982F4004362
:10A2F000012B0ED945F625633B80002003B0F0BD4D
:10A300000EF0AAF90020F9E745F6C3533B80002080
:10A31000F4E72268084B9A4204D045F6C4533B80C8
:10A320000020EBE70DF058FA034600972A46314625
:10A330002046FFF73DFFE1E7464C41470023034A33
:10A340001360034A13800380704700BFFC12002093
:10A35000F812002070B4174B1D685DB1164B1E88B3
:10A3600066B105F1100406F1FF3C1FFA8CFC2B4688
:10A37000002210E045F21E73038019E045F21D73C0
:10A38000038015E01C60002159601981D9601033E9
:10A390001034013292B26245F4D300221A605A603E
:10A3A0001A81DA60054B1D609E80DA801A81028076
:10A3B00070BC7047EC4B0208F04B0208EC12002016
:10A3C0000181002343818381036043607047000063
:10A3D0008446408900B310B5DCF804406068B4F8E6
:10A3E00008E0A1F800E00AB1E16811602268CCF849
:10A3F0000420CAB1BCF80A20013AACF80A200D4A80
:10A40000116821601460918801319180D1880139EF
:10A41000D18000221A8010BD088002B1106046F27F
:10A4200092521A8000207047CCF80020ACF80A2025
:10A43000E5E700BFEC120020F0B547890489A74288
:10A440002CD29E46224CA688002E2CD0204D2C6863
:10A4500023682B60013EAE80B5F806C00CF1010CFC
:10A460001FFA8CFCA5F806C02D89AC4502D9184D01
:10A47000A5F808C0E7B904604460012343810023C4
:10A480002360858943899D4200D283816160228156
:10A49000059BE3600023069A1380F0BD46F29353B8
:10A4A000069A1380F9E745F21D73069A1380F4E7C4
:10A4B0001EF0100F08D103681C60046000232360A5
:10A4C000438901334381DCE7436823604460F7E755
:10A4D000EC120020064BC36100234361054B1B684F
:10A4E00023B183615861034B186070478361FAE7B9
:10A4F000344C0208E8120020F8B532B304460D4689
:10A500001646194B1B78012B22D0184B1B781BBB0E
:10A5100030B3FDF7D7FF0746154B23606560002574
:10A520002562656284F82850E56204F10800FFF7AF
:10A5300053F82046FFF7CEFF0E4A138801331380ED
:10A540003846FDF7C3FF3580F8BD0EF085F8FBE710
:10A5500044F251631380F7E742F6E1631380F3E7B7
:10A5600045F6C3531380EFE7581100200A1300206B
:10A570004D555458E6120020C36B0B62C1637047FF
:10A580002DE9F04389B0109E7EB1044688461746F7
:10A590001D46594B1B785BB980B19AB1B2F5004F9B
:10A5A00010D045F62563338005E00EF055F802E043
:10A5B00046F2AE13338009B0BDE8F08345F6C353CD
:10A5C0003380F8E722684D4B9A4203D045F6C453D6
:10A5D0003380F0E7FDF776FF814694F8283043B3E7
:10A5E000606A474A1268904237D017F4004F4AD148
:10A5F000444B1B78002B50D190F8373092F837102D
:10A600008B4254D84346042221466846FFF710FB8C
:10A610004846FDF75BFFFEF7E9FEFDF753FF384BB9
:10A620001A6892F83530032B61D8DFE803F0434B0A
:10A630005952334B1B686362012384F828300DB1F3
:10A64000E36A2B6021462E4B1868FFF795FF4846BA
:10A65000FDF73CFF00233380ADE7FF2B0CD0013327
:10A6600084F828300DB1E36A2B604846FDF72EFFD1
:10A6700045F2827333809EE74846FDF727FF45F297
:10A680008473338097E74846FDF720FF0DB1002320
:10A690002B6046F2B01333808DE74846FDF716FF76
:10A6A0000DB100232B6046F66353338083E701F03E
:10A6B000BDF9A7E70DB1936C2B6000233380FDF744
:10A6C00005FF78E70DB1936C2B6046F2A913338038
:10A6D000F5E70DB100232B6047F2D9233380EEE775
:10A6E0000DB1936C2B6045F6C2533380E7E746F615
:10A6F0002E633380E3E700BF0A1300204D55545802
:10A70000700E0020481100203C3001E003F12000D1
:10A7100003688B42FAD11B6A0360704700F13C0367
:10A720001F2000E020331B684BB19A68002AF9D043
:10A73000926892F837209042F4D91046F2E77047B9
:10A740002DE9F04F83B072B104460D4616464C4BCE
:10A750001B785BB980B199B1B1F5004F10D045F6C7
:10A760002563138005E00DF077FF02E046F20E232B
:10A77000138003B0BDE8F08F45F6C3531380F8E7AC
:10A780002268404B9A4203D045F6C4533380F0E729
:10A79000FDF798FE0746626A3B4B1B689A4205D05C
:10A7A000FDF794FE45F281733380E2E70DF014F873
:10A7B0008046E06294F82830013BDBB284F8283010
:10A7C00063BB2146304B1868FFF79EFFA36863B355
:10A7D0002D4BD3F800A09AF837B09AF83890CB45B3
:10A7E0002CD1A368D3F80890C4F82490012384F8EE
:10A7F000283021464846FFF7BFFECDF800800023F1
:10A800001A4649462046FFF7C1F83846FDF75EFE76
:10A8100015F4004F30D000233380AAE73846FDF707
:10A8200055FE45F283733380A3E70025656284F803
:10A8300028503846FDF74AFE35809AE75046FFF724
:10A840006DFF814528BF81465FFA89F9CB45C8D2A3
:10A850005046FFF7FDF8DFF830A0DAF8003083F853
:10A860003790484600F02AF8DAF80000FFF744F87D
:10A87000064B83F80090B4E7FEF7B8FDCBE700BFC6
:10A880000A1300204D555458700E0020E512002088
:10A89000002303B17047034A002142F8231001331B
:10A8A000F7E700BF680E002008B5034B1868FDF7F6
:10A8B00014FEC0B208BD00BF680E00204FF0004378
:10A8C00023FA00F0024A136803431360704700BF85
:10A8D000680E00204FF0004323FA00F0024A13688C
:10A8E00023EA000313607047680E00202DE9F0474B
:10A8F00088B0109F87B10446894690461E46474B54
:10A900001B786BB9A0B1C2B1B2F5004F15D045F6B6
:10A9100025633B80002507E00DF09EFE002503E047
:10A9200046F2AE133B800025284608B0BDE8F0870C
:10A9300045F6C3533B800025F6E72268384B9A4220
:10A9400004D045F6C4533B800025EDE7FDF7BAFD82
:10A950008246256A7DB918F4004F18D1314B1B7817
:10A9600003B30EB1002333605046FDF7AFFD46F64A
:10A9700063533B80D8E7013D25620EB1636A3360C3
:10A98000256A5046FDF7A2FD00233B80CCE70EB1BF
:10A9900000233360256A5046FDF798FD46F2B01358
:10A9A0003B80C1E74B46062221466846FFF740F947
:10A9B0005046FDF78BFDFEF719FDFDF783FD1A4BA1
:10A9C0001A6892F83530032B21D8DFE803F0020B28
:10A9D00019120EB1936C336000233B80256AFDF79A
:10A9E00075FDA1E70EB1936C336046F2A9133B806D
:10A9F000F4E70EB10023336047F2D9233B80EDE743
:10AA00000EB1936C336045F6C2533B80E6E746F6E1
:10AA10002E633B80FDF75AFD86E700BF0A13002036
:10AA200053454D4148110020700E002070B572B1A1
:10AA300004460D461646144B1B785BB970B102688C
:10AA4000124B9A420ED045F6C453338070BD0DF0C0
:10AA500003FEFBE746F6C6531380F7E745F6C353FC
:10AA60001380F3E700233380FDF72CFD236A1BB12D
:10AA70002562FDF72BFDE9E7A3681BB147F25F13E1
:10AA80003380F6E72562F4E70A13002053454D4171
:10AA9000064BC36100234361054B1B6823B18361EF
:10AAA0005861034B186070478361FAE7344C020821
:10AAB000441100202DE9F0412BB304460E46154603
:10AAC0001F46184B1B78012B20D0174B1B780BBB54
:10AAD00020B3FDF7F7FC8046144B23602562002568
:10AAE0006562666004F10800FEF776FD2046FFF718
:10AAF000CFFF0F4A1388013313804046FDF7E6FC71
:10AB00003D80BDE8F0810DF0A7FDFAE744F2516306
:10AB10003B80F6E742F6E1633B80F2E745F6C3533C
:10AB20003B80EEE7581100200A13002053454D41A9
:10AB3000421100202DE9F04383B005460E4617462A
:10AB40009846FDF7BFFC8146AC68C4B154B1A1681A
:10AB50006468009700231A462846FEF717FF16F48C
:10AB6000007FF3D14846FDF7B1FC16F4004F1BD02F
:10AB70000024A8F80040204603B0BDE8F0832C6A0A
:10AB8000B4F1FF3F08D001342C626F62FDF79EFCE8
:10AB90000023A8F80030EEE7FDF798FC46F6C55311
:10ABA000A8F800300024E6E7FEF720FCE0E700000C
:10ABB00070B582B105460C46164680B1B1F5004F1E
:10ABC00015D011D899B1B1F5007F10D045F62563A5
:10ABD0003380002070BD0DF03FFD0020FAE745F600
:10ABE000C35313800020F5E7B1F5024FEED12A6878
:10ABF000084B9A4204D045F6C45333800020E9E75D
:10AC00000CF0EAFD0246334621462846FFF792FF44
:10AC1000E0E700BF53454D41F8B5C0B10746FDF729
:10AC200051FC0023254A1380254A1360254A1360EE
:10AC3000254A1360254A1360254A1381FDF746FC17
:10AC4000FDF740FC234B1C68FDF740FC20E00DF0B5
:10AC500003FD31E0FDF736FC06460025C4F8B05090
:10AC60006567C4F8A450C4F88C50A4F88850A4F8C0
:10AC70008A50C4F89850C4F89C500CF0ADFDC4F84C
:10AC80009400A4F86C50D4F8B8403046FDF71EFC90
:10AC9000002CDFD1FDF716FC0F4B1C68FDF716FCEE
:10ACA00006E0FDF70FFC0023A385A469FDF70EFC69
:10ACB000002CF6D100233B80F8BD00BF3C110020E2
:10ACC00068100020940F0020800E002050110020FA
:10ACD000EC12002060100020E01200202DE9F0416D
:10ACE00082B007E0774B18680DF1060200214000A2
:10ACF00001F0FEF8744B1B78012BF3D10DF1060027
:10AD0000FFF78AFF714B1B686E4A1268934205D9A0
:10AD1000B3FBF2F8B8F1000F40F0A4806C4AA2FB3C
:10AD200003234FEAD3089DE0012142F21070B2FBE9
:10AD3000F1F200FB03F3B3FBF2F3C3F51C53103342
:10AD40009BB2644A1380644A1288934210D9624AC3
:10AD500013800DE00A214FF47A70E8E76421084679
:10AD6000E5E742F210710120E1E75A4B00221A8018
:10AD7000FEF768F9FDF7A6FB584B1C68FDF7A6FB2C
:10AD8000002513E0FDF79EFBD4F89830C4F89C3002
:10AD90000023C4F89830FDF799FBD4F89C301D448B
:10ADA000FDF790FBD4F8B840FDF790FB002CE9D1FB
:10ADB0003DB34B4B9D420CD94A4B9D4216D94A4B51
:10ADC0009D4217D3494B9D4217D80A234FF47A76F8
:10ADD00002E042F210730126B5FBF6F61D46FDF7C0
:10ADE00071FB3E4B1C68FDF771FB12E04FF47A7368
:10ADF0000A26F1E764231E46EEE7012342F21076AD
:10AE0000EAE70126EBE7FDF75DFBD4F8B840FDF774
:10AE10005DFBA4B1D4F89C3005FB03F3B3FBF6F360
:10AE20009BB242F21072934200D91346A4F88830C4
:10AE3000B4F88A209A42E6D2A4F88A30E3E72C4B91
:10AE40001B78012B35D00CF0C7FCC01B294B1B68AD
:10AE5000834201D2274B18600DF1060200214046C3
:10AE600001F046F80CF0B8FC0746FDF72BFB224C2E
:10AE7000224B1A68226000221A60FDF727FB204B44
:10AE80001A6823689A427FF670AF15498A427FF6A6
:10AE90004BAF14498A427FF65DAF13498A42FFF4F3
:10AEA0005DAF12498A423FF65CAF4FF47A710A20D7
:10AEB0003DE70F4B00221A700DF10600FFF7ACFEC4
:10AEC000C1E700BFE44B02082C110020D04B020860
:10AED000CDCCCCCC3E1100203C11002060100020D5
:10AEE0007F1A0600FF083D00005A6202FF83D71751
:10AEF000401100206810002030110020381100207F
:10AF00003411002030B583B058B104460DF106016C
:10AF1000244800F071FDBDF806302BB1238003B04A
:10AF200030BD0DF099FBFAE70DF106020021022079
:10AF300000F0DEFFBDF806300BB12380EFE7FDF730
:10AF4000C1FA194B00221A60FDF7C0FA174B1B68B3
:10AF5000174A1068834202D9B3FBF0F018B9154ABA
:10AF6000A2FB0323D8080DF10602002100F0C0FF68
:10AF70000DF106010B4800F009FCBDF806300BB1DD
:10AF80002380CCE7FDF79EFA00250B4B1D60064B96
:10AF90001A680A4B1A600A4B01221A70FDF796FADA
:10AFA0002580BCE7840E002038110020D04B020819
:10AFB000E44B0208CDCCCCCC68100020341100202A
:10AFC0002C11002000231C4A13601C4A13601C4AE9
:10AFD00013601C4A13701C4A13701C4B1A6882B110
:10AFE0001B4B19681B4B1B6899420ED310B58AB0D6
:10AFF000194B1C781E2C0CD946F62A6303800AB024
:10B0000010BD46F62B630380704746F62C63038021
:10B010007047089003230793002306930593049336
:10B0200003910E4909680291019200940C4A0D495E
:10B030000D4800F0F9F9E2E7381100203011002046
:10B04000341100202C11002040110020E04B020898
:10B05000D84B0208D44B0208E84B0208DC4B02082C
:10B06000DDAC0008384C02086C1000202DE9F047D8
:10B07000089D002D49D08246894690461C46514B7A
:10B080001B78002B45D1002A48D011B1B1F5004FF3
:10B0900049D10CB100232360FDF714FA07464A4B4F
:10B0A00018682B46224641466030FFF791F9064664
:10B0B0002B88002B3CD019F4004F49D1434B1B780F
:10B0C000002B4DD15346022200210846FEF7B0FD69
:10B0D0003846FDF7FBF9FEF789F9FDF7F3F9074666
:10B0E000394B1B6893F83520002A41D0012A5ED0E5
:10B0F0000023A8F800301CB1334B1B689B6C236005
:10B1000047F2D9232B8000264BE00DF0A5FA2E46FE
:10B110004AE046F2AE132B80002645E046F2D523E6
:10B120002B80164640E045F625632B8000263BE049
:10B1300054B10CF051FB2268234B1B68801A18672E
:10B140005A6F904200D958673846FDF7BFF92BE097
:10B1500046F2B0132B803846FDF7B8F9002623E0FD
:10B160003846FDF7B3F946F663532B8000261BE003
:10B170009E6DB3F85C30A8F8003084B1DFF84880E9
:10B18000D8F800309B6C23600CF026FBD8F8003018
:10B190009A6C801A18675A6F904200D9586700233A
:10B1A0002B803846FDF792F93046BDE8F087002342
:10B1B000A8F8003004B1236046F2A9132B800026C2
:10B1C000EFE700BF0A130020700E00204811002096
:10B1D0002DE9F84393B107460C46164698464E4B68
:10B1E0001B787BB9A1B1B1F5004F11D045F62563AD
:10B1F000A8F8003000252846BDE8F8830DF02CFAA9
:10B200000025F8E746F2AE13A8F800300025F2E773
:10B21000FDF758F98146414B1B68DD6C85B914F484
:10B22000004F27D13E4B1B7873B30EB10023336020
:10B230004846FDF74BF946F66353A8F80030DAE7C5
:10B24000013DDD640EB19B6C33600CF0C5FA334BED
:10B250001B689A6C801AC3F8A000D3F8A42090420F
:10B2600001D9C3F8A4004846FDF730F90023A8F837
:10B270000030C0E7FDF72AF90EB10023336046F233
:10B28000B013A8F80030B6E73B4607220021084675
:10B29000FEF7CEFC4846FDF719F9FEF7A7F8FDF7D3
:10B2A00011F904461D4B1A6892F83530012B1DD058
:10B2B000032B23D053BB7EB1936C33600CF08CFA1C
:10B2C000164B1A68936CC31AC2F8A030D2F8A410B7
:10B2D0008B4201D9C2F8A4300023A8F800300F4BEC
:10B2E0001B68DD6C2046FDF7F1F884E70EB1936C26
:10B2F000336046F2A913A8F80030F0E70EB100233E
:10B30000336047F2D923A8F80030E8E746F62E6309
:10B31000A8F80030E3E700BF0A130020700E0020F9
:10B32000481100200023C0F8B430064B1B6833B12D
:10B33000C0F8B830C3F8B400024B18607047C0F8CA
:10B34000B830F9E7601000200023044A1360044A73
:10B350001380044A13600380704700BF6010002010
:10B360005E1000206410002038B5044600250560FA
:10B37000C5604560056145618561C5610562284B11
:10B38000836045628562C5620563A0F846508564A6
:10B390008565A0F85C5029466030FFF711F82567F5
:10B3A0006567E567A4F88450C4F8805085B300252C
:10B3B000E564C4F8A050C4F8A450256484F886500D
:10B3C000A4F8445025656565A4F88850A4F88A500F
:10B3D000C4F88C50C4F890500CF0FEF9C4F89400F6
:10B3E000C4F89850C4F8B05084F8345084F83550FC
:10B3F00084F83650202384F8373084F83830E563F9
:10B40000C4F8B450C4F8B850064BC4F8BC3038BDCA
:10B4100005F11E03002244F823200135EDB2C5E7F3
:10B420004C4C0208344C02082DE9F04F85B09DF8D1
:10B4300038A0BDF854B0169E26B30446884615467B
:10B4400099465B4B1B78012B1FD05A4B1F7807BBCB
:10B4500028B342B30F9B53B3574B1B68119A9342C7
:10B4600029D8119B109A934229D9BAF11F0F2AD8D3
:10B47000BAF11F0F2BD1514B984228D046F27323BB
:10B48000338009E00DF0E8F806E044F251633380C0
:10B4900002E047F24A13338005B0BDE8F08F47F26F
:10B4A000AD133380F8E747F24F133380F4E746F6E5
:10B4B0002F633380F0E746F630633380ECE746F6DF
:10B4C00031633380E8E746F273233380E4E72046B4
:10B4D000FFF74AFF002333801BF0030F02D01BF05D
:10B4E000020F4FD10F9B109A03EB82030393CDF809
:10B4F00004B0119A00920F9A49462846FDF7BAFD0A
:10B500000F9B834241D8A562C4F82C90C4F80880F0
:10B5100084F837A084F838A02060039BE360149B74
:10B5200063600F9B6362119B2364A4F844B087B3EC
:10B53000BDF8481004F16000FEF742FF2046FDF719
:10B5400089FDFCF7BFFF054694F83700FFF7B6F911
:10B550002046FEF7D1F92046FFF7E4FE184A13888B
:10B5600001331380174B1B78012B1AD02846FCF7A8
:10B57000ADFF91E7002142F8041B013311998B4282
:10B58000F8D3AFE70F9A0023F8E746F62C63338031
:10B5900082E707F11E03002244F823200137FFB29F
:10B5A000C5E72846FCF792FFFDF720FF74E700BFD0
:10B5B000581100200A130020D44B02080C1300205D
:10B5C0005E100020091300202DE9F04383B00446EB
:10B5D0000E4617469846DDF82C900023A9F8003057
:10B5E000FCF770FF054654B194F836C0BCF1070F64
:10B5F0003DD8DFE80CF00707181807071818204B8C
:10B600001C68F1E7CDF804900A9B009343463A4644
:10B61000314604F16000FEF70FFF2846FCF756FFA5
:10B6200003B0BDE8F08394F83430022B0ED0CDF88F
:10B6300004900A9B009343463A46314604F1600069
:10B64000FEF7FAFE2846FCF741FFE9E70A9B009364
:10B650003B46324621460020FEF798F92846FCF783
:10B6600035FF18F4004FDBD1FDF7C0FED8E72846C0
:10B67000FCF72CFF46F62D63A9F80030D0E700BF99
:10B68000700E00202DE9F04182B0089EAEB18046D8
:10B690000F4615461C46B3F5004F03D010D80BB12A
:10B6A000102B11D10CF098F80196009023462A46F1
:10B6B00039464046FFF788FF09E00CF0CDFF06E071
:10B6C00048F210039C42EDD045F62563338002B06A
:10B6D000BDE8F08170B504460D46FCF7F3FE064662
:10B6E00000232B8094F83630072B48D8DFE803F08E
:10B6F000040404040C1D2B39FCF7E8FE47F2531335
:10B700002B80FDF773FE70BD94F88630013BDBB2F1
:10B7100084F886301BB13046FCF7D8FEF1E784F898
:10B7200036302046FEF71CF9F5E794F88630013BE9
:10B73000DBB284F8863013B9012384F83630304602
:10B74000FCF7C4FEDDE794F88630013BDBB284F8F9
:10B75000863013B9022384F836303046FCF7B6FE43
:10B76000CFE794F88630013BDBB284F8863013B91A
:10B77000032384F836303046FCF7A8FEC1E7FCF717
:10B78000A5FE46F62D632B80BDE7000038B541B11C
:10B7900004460D460E4B1B7833B147F255130B8010
:10B7A00038BD0CF059FFFBE7FCF78CFE54B1094B98
:10B7B0001B68A34206D0FCF789FE29462046FFF706
:10B7C00089FFEDE7FCF782FE47F257132B80E7E78E
:10B7D0000A130020700E002000B583B0054B1868D6
:10B7E000FDF740FC0DF106020021034B186800F044
:10B7F0007FFBF7E7700E0020D04B02082DE9F041E7
:10B8000082B00446884616461D46FCF75BFE074696
:10B8100064B1A66400232B8094F83630072B44D8FB
:10B82000DFE803F007071C1C07071C1C234B1C68E0
:10B83000EFE7E36CB3F1FF3F08D05D1CE5643846E9
:10B84000FCF744FE284602B0BDE8F0813846FCF71C
:10B850003DFE46F6C5532B800025F3E794F83430BF
:10B86000072B09D0E36CB3F1FF3F16D05D1CE564F4
:10B870003846FCF72BFEE5E7009600231A462146E2
:10B880001846FEF783F8E56C3846FCF71FFE18F4FF
:10B89000004FD7D1FDF7AAFDD4E73846FCF716FED6
:10B8A00046F6C5532B800025CCE73846FCF70EFE44
:10B8B00046F62D632B800025C4E700BF700E0020E4
:10B8C00070B55AB105460C46164659B1B1F5004F50
:10B8D00008D045F625631380002070BD0CF0BCFE37
:10B8E0000020FAE70BF078FF02463346214628464F
:10B8F000FFF784FFF1E7000070B504460D46FCF742
:10B90000E1FD06467CB1394B1B68A34218D00023E9
:10B910002B8094F83630072B5ED8DFE803F01C2D1F
:10B9200037414B4B4B4B324B1B78012B02D12F4BEA
:10B930001C68E8E7FCF7CAFD45F689632B801AE02E
:10B940002C4B1B78002BE2D03046FCF7BFFD46F6AF
:10B9500063532B800FE0042384F83630012384F8EE
:10B9600086302046FEF774F83046FCF7AFFD204BDA
:10B970001B78012B37D070BD052384F836300123A6
:10B9800084F886303046FCF7A1FDF0E7062384F802
:10B990003630012384F886303046FCF797FDE6E721
:10B9A000072384F83630012384F886303046FCF7CC
:10B9B0008DFDDCE794F88630FF2B06D0013384F848
:10B9C00086303046FCF782FDD1E73046FCF77EFD3D
:10B9D00047F260132B80CEE73046FCF777FD46F642
:10B9E0002D632B80C7E7FDF701FDC4E7700E002033
:10B9F000091300204811002008B541B1094A127806
:10BA000042B9094A904209D0FFF776FF08BD0CF011
:10BA100023FEFBE747F25D120A80F7E747F25B126D
:10BA20000A80F3E70A1300200C13002070B50446C7
:10BA30000D461AE02046FEF70BF884F837502846EA
:10BA4000FEF73CFF304B1B68A34204D02046FDF7B5
:10BA500053FF002407E02046FDF720FF002402E00A
:10BA600084F837500024002C4CD094F8376094F8B8
:10BA70003630072B46D801A252F823F035BA000819
:10BA800061BA00089DBA00089DBA000861BA0008B2
:10BA900061BA00089DBA00089DBA000884F83750C2
:10BAA00094F83430013B052B2AD8DFE803F0032952
:10BAB000030803032046FDF7DAFD0024D3E7204600
:10BAC000FDF7D5FD236BDB685C6AB54212D394F8B1
:10BAD0003730B342C7D12046FEF720FE94F83850E5
:10BAE000854228BF0546EDB294F83730AB42BAD153
:10BAF0000024B8E794F83730AB42B4D80024B2E75A
:10BB00000024B0E770BD00BF700E0020F8B50646F7
:10BB10000BF062FE0746214B1C68002C3CD0236DC5
:10BB2000B34204D8F61A00232365002517E09B1BB7
:10BB30002365FAE7002384F836302046FDF710FF2E
:10BB400018E0042384F8363014E000229A80134B66
:10BB5000DD800BF041FEC01BF8BD9B1B2365236DF0
:10BB6000002BF4D10135ADB294F83630012BE1D081
:10BB7000052BE6D0A469094B1C60002CE5D0074AD0
:10BB80009388013B93800023E361236DB342E4D8A3
:10BB9000F61A00232365E2E70025D8E78C0F002082
:10BBA0002DE9F04106460BF017FE80463C4B1C6821
:10BBB000002C73D0236DB34204D8F61A00232365FA
:10BBC000002525E09B1B2365FAE7236BDB685F6A92
:10BBD00027E02046FDF7C4FE002384F8363030E02D
:10BBE000042384F836302CE03846FFF71FFFA469A1
:10BBF0002B4B1C60002C44D0294A9388013B938036
:10BC00000023E361236DB34245D8F61A0023236570
:10BC1000236DC3BB0135ADB294F83430042BD4D0BE
:10BC200000270023A365A4F85C300BF0D5FDA064C9
:10BC30002046FDF736FD94F83630032BC9D0072B8C
:10BC4000CED0032384F83530002384F83430002F1D
:10BC5000CDD097F8373097F838209342C7D094F872
:10BC600037209342C3D13846FEF758FD97F8381075
:10BC7000814228BF0146C9B297F837308B42B6D00F
:10BC8000B2E700229A80064BDD800BF0A5FDA0EB09
:10BC90000800BDE8F0819B1B2365B9E70025F2E7AA
:10BCA000840F002030B583B002E02846FCF70EFC7C
:10BCB0000DF10603002211461046FFF789FABDF880
:10BCC0000630002BF4D1FCF7FDFB0546094A13684A
:10BCD000013313600120FFF719FF04460120FFF72D
:10BCE0005FFF2044044A12688242DED2024A10609A
:10BCF000DBE700BF58100020940F002000231C4AEF
:10BD000013601C490B601C4A13608B80CB809380AE
:10BD1000D3801A4B1A6882B1194B1968194B1B68EA
:10BD200099420ED310B58AB0174B1C781E2C0CD933
:10BD300047F2112303800AB010BD47F2122303809B
:10BD4000704747F213230380704708900B23079333
:10BD5000002306930593049303910C49096802910B
:10BD6000019200940A4A0B490B48FFF75DFBE2E79A
:10BD7000581000208C0F0020840F0020C84B0208B0
:10BD8000C04B0208D44B0208CC4B0208C44B02083B
:10BD9000A5BC0008544C0208980F002030B4046879
:10BDA0004CB12346002B2BD01C6D94420CD2121B9D
:10BDB0001C469B69F6E70A6500238B61CB6108622C
:10BDC00001600123838023E0DC6964B10A65CC61F2
:10BDD0008B6108621D6DAA1A1A65D961A1618388F9
:10BDE0000133838014E00A65CC618B6108621C6DAD
:10BDF000A41A1C65D961016083880133838007E040
:10BE00000A65CC618B610862A161838801338380FC
:10BE100030BC704738B51F4C2468042A0FD0082A5C
:10BE200018D000221A80012380F83630194B1A6886
:10BE3000A21A0A4401461848FFF7B0FF38BD091B93
:10BE40004A1E12F1011FECD90022026547F27E2240
:10BE50001A80F3E7426DA4EB020C8C4502D96218FC
:10BE60004265DEE7A2EB040E8E440EF1FF3515F1BC
:10BE7000011F03D80A4442657146D2E7BCFBF1FCBE
:10BE80000CFB011C624442650022026547F27E22DF
:10BE90001A80D3E7581000208C0F002030B4016ABC
:10BEA000C269836982B1936123B1DA611A6D046D4D
:10BEB00022441A650023C3618A88013A8A8083611B
:10BEC0000365036230BC70476BB10022DA61046D18
:10BED0001D6D2C441C650B608B88013B8B8082613F
:10BEE00002650262EEE70B608B8003650362E9E79F
:10BEF000F8B58AB106460C4615461E4B1B7873B939
:10BF00001D4B1B787BB908292CD8DFE801F0102BDA
:10BF1000102B112B2B2B10000CF09EFB02E047F294
:10BF200075231380F8BD46F663531380FAE7A8B172
:10BF3000FCF7C8FA07462B46224631460F480068F0
:10BF4000FFF768FF2B888BB90C4B1868FDF780FD55
:10BF50003846FCF7BBFAFDF749FAE3E747F27E23E0
:10BF60001380DFE745F625631380DBE73846FCF7EF
:10BF7000ADFAD7E70A13002048110020700E002008
:10BF8000F8B5BDF818C0079D85B1494C247884B92F
:10BF9000484C24788CB90CF00E04082C2CD8DFE81F
:10BFA00004F0102B102B142B2B2B10000CF054FB37
:10BFB00002E047F275232B80F8BD46F663532B80D1
:10BFC000FAE713B90AB901B990B13CF01E0617D1CE
:10BFD0001CF0100F24D1B3F57A7F15D23B2A17D865
:10BFE0003B2919D8632822D947F278232B80E3E72D
:10BFF00047F27E232B80DFE745F625632B80DBE7C6
:10C0000045F625632B80D7E747F27B232B80D3E7C8
:10C0100047F27A232B80CFE747F279232B80CBE7B7
:10C0200042F20F76B1421ED8B0F57A7F1FD2224E6F
:10C030003768C1EB011189004FF4616606FB0010FF
:10C0400002444FF4FA76B6FBF7F61E4407FB06F6F9
:10C050001A4BA3FB0636B60907FB02665EB947F228
:10C060007E232B80A8E747F279232B80A4E747F2B1
:10C0700078232B80A0E7FCF725FA07462B462246BB
:10C0800031460F480068FFF7C5FE2B885BB90C4BA3
:10C090001868FDF7DDFC3846FCF718FAFDF7A6F93D
:10C0A00000232B8088E73846FCF710FA84E700BFAE
:10C0B0000A13002048110020D04B0208D34D621013
:10C0C000700E002038B550B10546FCF7FBF9064B61
:10C0D0001C68FCF7FBF900232B80204638BD0CF0D0
:10C0E000BBFA0024F9E700BF58100020104B1B7862
:10C0F000012B00D0704700B583B0FDF7D1F80DF1EA
:10C10000060200210B48FFF7DBFB0B4A1368013BDB
:10C11000136013B103B05DF804FB084B1A68064BBB
:10C120001A600DF1060200210548FFF7C9FBF1E78F
:10C1300009130020980F0020740E0020780E0020B4
:10C14000840E002000B585B00DF10E03009302AB04
:10C15000002211460248FEF713FA05B05DF804FB11
:10C16000480F002000B583B00DF1060200210348FE
:10C17000FEF7E6FA03B05DF804FB00BF480F0020AD
:10C1800070B571B104460E462B4B1D786DB988B160
:10C1900002682A4B9A4211D045F6C4530B802846B8
:10C1A00070BD0CF059FA0025F9E747F243330B80D4
:10C1B0000025F4E747F242330B80F0E7FFF7C2FFB8
:10C1C00094F82630032B32D8DFE803F02C0A020A59
:10C1D000E369A361002333800125FFF7C3FFDEE796
:10C1E000022384F82630E36993B9236AA361144BD0
:10C1F0001B687BB12361002262615C61104B1C6093
:10C20000104A138801331380002333800125E4E7AB
:10C21000A361ECE723616361094B1C60094B0122B8
:10C220001A80F1E747F23D3232801D46D5E747F2EA
:10C2300041333380D1E700BF0A130020544D522010
:10C24000780F00207C0F002070B571B104460E46B7
:10C25000144B1D786DB988B10268134B9A4211D006
:10C2600045F6C4530B80284670BD0CF0F5F9002547
:10C27000F9E747F243330B800025F4E747F24233F6
:10C280000B80F0E7FFF75EFF94F82650032D04D8EB
:10C2900000233380FFF766FFE5E747F24133338041
:10C2A000F8E700BF0A130020544D52200023836298
:10C2B000044B1B6823B1C3629862024B186070473D
:10C2C000C362FAE7800F00202DE9F843BDF8209003
:10C2D0000B9DC5B10446884617461E462E4B1B785B
:10C2E000012B13D02D4B1B78A3B9C0B1B9F1010FAD
:10C2F0001DD0B9F1020F44D1AEB1099BC3B947F2C9
:10C300004A332B8009E00CF0A7F906E044F25163B0
:10C310002B8002E047F243332B80BDE8F88345F6DB
:10C32000C3532B80F9E747F240332B80F5E722B364
:10C330001B4B1B78012B28D0012384F82630194B86
:10C340002360C4F80480E7610023A3612662A4F897
:10C350002490099AA2600A9AE260236163612046F0
:10C36000FFF7A4FF104A1388013313800C4B1B788E
:10C37000012B0DD000232B80CFE747F23F332B80DA
:10C38000CBE745F625632B80C7E7FFF7DBFED3E756
:10C39000FFF7E8FEEEE700BF581100200A13002067
:10C3A00009130020544D5220440F002010B58AB0CC
:10C3B000044600232A4A13602A4A13602A4A13803B
:10C3C0002A4B1B6833B32A4A1268B2FBF3F3294A9B
:10C3D0001360284B1A68284B1A600023274A136001
:10C3E000274A1360224627492748FEF785F8238805
:10C3F00003BB264B1A68B2B1254B1968254B1B6845
:10C40000994214D3244B18781E2815D947F2463385
:10C4100023800FE0164B1B68204AA2FB0323DB0896
:10C42000144A1360D5E747F24733238002E047F20E
:10C43000483323800AB010BD08940B2307930023D0
:10C44000069305930493039115490968029101929B
:10C450000090144A14491548FEF7E6FFEAE700BFCA
:10C46000800F0020780F00207C0F0020B84B0208BE
:10C47000D04B0208780E0020740E00207C0E0020A5
:10C48000800E0020684C0208480F0020B44B0208C0
:10C49000AC4B0208D44B0208BC4B0208CDCCCCCC30
:10C4A000B04B0208F1C40008784C0208840E00204A
:10C4B0000D4B1B6883420FD042690369136103B1BE
:10C4C0005A61012380F82630002303614361074A43
:10C4D0001388013B138070470369034A1360002BE4
:10C4E000EFD000225A61ECE7780F00207C0F00208B
:10C4F00070B582B02BE02046FFF7DAFF032384F803
:10C500002630A36813B1E168204698470DF1060074
:10C51000FDF73CFB2C467CB10DF10600FDF7E4FA7B
:10C520002569A369013BA361002BEFD1A38C022BEA
:10C53000E1D1236AA361E4E70BF04EF9801B0D4BB8
:10C540001B68834201D20B4B1860FFF70BFE0DF105
:10C5500006036A4600210846FEF73AFEFFF7F2FDA1
:10C560000BF03AF90646044A136801331360034B93
:10C570001C68D0E7800E00207C0E0020780F002081
:10C5800008B5034B00221A600BF00EF908BD00BF7E
:10C59000EC13002008B5FFF7F3FF08BDFEE700002D
:10C5A000014B1860704700BFEC1300200A60009830
:10C5B0001044013848608A60024A1068C8600B6104
:10C5C00011607047F01300202DE9F04182B005465C
:10C5D0000E4617469846FBF775FF0446CDF80080D7
:10C5E000089B3A4631462846FFF7E0FF2046FBF716
:10C5F0006DFF099B42F210721A8002B0BDE8F08113
:10C6000000B585B00D4B00221A600DF10E030193A9
:10C61000012300934AF22803094A0A490A48FFF70E
:10C62000D3FFBDF80E2042F210739A4202D105B03A
:10C630005DF804FBFFF7B2FFF9E700BFF01300203D
:10C6400008140020F4130020904C020808B54FF69F
:10C65000FF71324810F0A2FE4FF6FF71304810F023
:10C660009DFE4FF6FF712F4810F098FE4FF6FF71B8
:10C670002D4810F093FE4FF6FF712C4810F08EFEFF
:10C680004FF6FF712A4810F089FE4FF6FF712948D6
:10C6900010F084FE4FF6FF71274810F07FFE4FF632
:10C6A000FF71264810F07AFE4FF6FF71244810F013
:10C6B00075FE4FF6FF71234810F070FE224B1A6B87
:10C6C00022F001021A631A6B22F002021A631A6B3B
:10C6D00022F004021A631A6B22F008021A631A6B22
:10C6E00022F010021A631A6B22F020021A631A6BEE
:10C6F00022F040021A631A6B22F080021A631A6B4E
:10C7000022F480721A631A6B22F400721A631A6B95
:10C7100022F480621A6310F0FBF908BD00000240A9
:10C720000004024000080240000C024000100240D9
:10C730000014024000180240001C02400020024089
:10C7400000240240002802400038024038B572B68A
:10C75000002407E065B2284610F0D6FA284610F00B
:10C76000EFFA01345A2CF5D9FFF770FF38BD0020DD
:10C770007047704730B585B004F094FF00F0C8FAF8
:10C7800002F062F90BF0A8FC02F080FC05F002FF59
:10C7900007F07EFD01F0FEFE0BF038FA0D2818D8E8
:10C7A000104B00221A604FF444700DF0F1FCA8B950
:10C7B0000024009401940294039401258DF8015003
:10C7C00068460BF0A1FB20460BF031FD284605B072
:10C7D00030BD054B1A68034B1A60E4E701F018FB03
:10C7E000E6E700BFF4B800201857020870B505F05E
:10C7F00003FD044605F00CFD054605F005FD064663
:10C800004FF4417002F0B8F92378834200D02070D1
:10C8100040F2063002F0B0F96378834200D06070D5
:10C8200040F2053002F0A8F9A378834200D0A0704E
:10C8300040F20B3002F0A0F93378834200D0307020
:10C8400040F2093002F098F92B78834200D028702A
:10C8500040F20A3002F090F96B78834200D06870A1
:10C8600070BD704710B584B004460DF10E03002270
:10C8700001212748FDF730FDBDF80E1031BB42F213
:10C8800001000BF06FFE0DF10E0300930023082250
:10C8900021462048FEF7F6FEBDF80E1009BB42F215
:10C8A00001000BF05FFE0DF10E03019300220092D8
:10C8B000012319461648FDF7F7F9BDF80E10D9B94E
:10C8C00042F201000BF04EFE04B010BD019142F2A5
:10C8D00001030093104B114AEE2111480BF03CFE6E
:10C8E000D1E7019142F2010300930B4B0B4AF72170
:10C8F0000B480BF031FED6E7019142F201030093A1
:10C90000054B064A40F2011105480BF025FEDBE716
:10C91000B0B50020F0B40020984C020890560208F0
:10C92000AC4C020800B583B04FF4A053ADF8003012
:10C930008DF8020001916846FFF794FF03B05DF89F
:10C9400004FB0000F0B583B0044600200BF01AFD94
:10C95000FF210220FFF7E6FF4FF486400AF042FF76
:10C9600000210420FFF7DEFF012C07D0022C38D075
:10C970006CB3032600231D461F4608E028222649E3
:10C98000264817F06BF80126334635463F2793B308
:10C99000214642F202000BF0E5FD31460520FFF78B
:10C9A000C1FF4FF000414FF486400AF089FF29464D
:10C9B00040F21A3002F0E8F839460320FFF7B2FFE0
:10C9C00000210120FFF7AEFF0DBB03B0F0BD282210
:10C9D0001349124817F042F8002601233546CC27A8
:10C9E000D5E728220F490D4817F038F80226012311
:10C9F0001D463F27CBE7019442F2020300930A4B06
:10CA00000A4A4FF4A9710A480BF0A6FDC5E728466B
:10CA10000BF0B8FCD9E700BF6C8F0208D8B5002036
:10CA2000448F0208948F0208044D0208AC56020895
:10CA3000AC4C020810B584B00023ADF80E3027E0EE
:10CA400000242AE0019142F202030093234B244A7E
:10CA50004FF4BE7123480BF07FFD2046FFF772FFB5
:10CA60000DF10E03012202211F48FDF735FCBDF830
:10CA70000E1031BB42F202000BF074FD0DF10E03FB
:10CA8000019300200090C82302460146FFF778FA80
:10CA9000164B1B78002BD3D00124154B1B78A342D7
:10CAA000ECD00DF10E03002202210F48FDF714FC1B
:10CAB000BDF80E100029C5D142F202000BF052FD64
:10CAC000CBE7019142F202030093044B044A40F287
:10CAD000871104480BF040FDD0E700BF984C0208D6
:10CAE000C0560208AC4C0208B0B5002098B7002030
:10CAF00000B6002010B584B00023ADF80C304BE038
:10CB0000019142F201030093784B794A6E217948F2
:10CB10000BF022FD52E042F201000BF023FD5BE03E
:10CB20000023019342F201030093734B704A70217A
:10CB300070480BF011FD56E0019142F201030093A1
:10CB40006A4B6B4A78216B480BF006FD5AE00DF1F9
:10CB50000E03019300200090642302460146FFF774
:10CB60000FFA012120880CF0D3F80028EFD1A1782A
:10CB700042F201000BF0F6FC0DF10E03012211460A
:10CB80005E48FDF7A9FBBDF80E10002940F0A38018
:10CB900042F201000BF0E6FC0DF10E0300930023BE
:10CBA00003AA19461846FEF761FA0446BDF80E10AE
:10CBB0000029A5D142F201000BF0D4FCBDF80C1005
:10CBC0000829A8D0019142F2010300934C4B484A36
:10CBD0006F2148480BF0C0FC002CA1D0002142F28C
:10CBE00001000BF0BFFC0DF10E03002201214348B0
:10CBF000FDF772FBBDF80E1000299DD142F2010035
:10CC00000BF0B0FCA378052B5AD801A252F823F000
:10CC100063CB00083DCC00085FCC000883CC000843
:10CC2000A5CC0008B1CC00080DF10E030193002043
:10CC30000090642302460146FFF7A2F900212088F4
:10CC40000CF066F80028EFD191E70DF10E03019387
:10CC500000200090642302460146FFF791F901226B
:10CC6000616820880CF03AF90028EED17FE70DF1D9
:10CC70000E03019300200090642302460146FFF753
:10CC80007FF9616820880CF017F90028EFD16EE772
:10CC90000DF10E030193002000906423024601462B
:10CCA000FFF76EF920880BF0EBFF0028F0D15EE76C
:10CCB000144920880CF06EF82279134B1A7056E74D
:10CCC000019342F201030093104B094AC62109481F
:10CCD0000BF042FC50E7019142F201030093034B39
:10CCE000034ACE2103480BF037FC55E7984C020865
:10CCF00080560208AC4C02083C4D0208B0B500203A
:10CD0000144D0208D8B5002000B60020544D02088A
:10CD100010B58CB000200BF0D9FF2B4C28222B49EA
:10CD2000204616F09BFE21464FF4A0500CF032F83E
:10CD30000DF12E042346002225492648FDF7D0F99F
:10CD40000894032307930023069305930222049279
:10CD50004FF480720392192202921F4A01920D220F
:10CD600000921E4A1E491F48FEF75EFBBDF82E309A
:10CD7000E3B90DF12E0308930323079300230693D1
:10CD80000593012204924FF48072039219220292B9
:10CD9000154A01920D220092144A15491548FEF7D2
:10CDA00043FBBDF82E3043B90CB010BD124B134AF3
:10CDB00040F2B51112480BF0E0FB0F4B0F4A4FF455
:10CDC000E3710F480BF0D9FBD8B50020448F02085F
:10CDD000684D0208B0B50020000E0010F5CA00082A
:10CDE0007C4D0208F0B40020000A001035CA00088B
:10CDF000904D020830B40020984C0208D05602082A
:10CE0000AC4C0208014B1878704700BF00B60020F8
:10CE100010B584B00023ADF80E30234B1B7883424D
:10CE200001D104B010BD04460DF10E0301930022A0
:10CE3000009248F2010302211C48FCF735FFBDF8BF
:10CE40000E1079B146F2B013994228D0019142F206
:10CE500002030093164B174A40F2E91116480BF0F3
:10CE60007BFBDEE70DF10E03009300230122214638
:10CE70001248FEF707FCBDF80E1021B942F202007D
:10CE80000BF070FBCDE7019142F2020300930C4BD3
:10CE9000084A40F2E51108480BF05EFBC1E742F298
:10CEA00002000BF05FFBBCE700B60020B0B500202D
:10CEB000A44D020864560208AC4C020830B40020AD
:10CEC000984C0208024B1878B0FA80F0400970477D
:10CED00020B6002084B070B584B008AC84E80F00A0
:10CEE0000DF10E03009300231A4619461A48FDF768
:10CEF00047FB1A4B1D78072D2CD8194E3478194B47
:10CF00002C2202FB043C0DF1200EBEE80F00ACE821
:10CF10000F00BEE80F00ACE80F009EE807008CE8A9
:10CF20000700631C5A4203F0070302F0070258BFD0
:10CF3000534233700135094B1D7001240DF10E026F
:10CF400000210548FDF7FCFB204604B0BDE8704019
:10CF500004B070470024F1E70012001020B6002052
:10CF600022B6002024B6002070B58EB004460DF124
:10CF70000A03009300231A4619462948FDF700FBCF
:10CF8000FFF7A0FF002844D1264E35780DF10C0E96
:10CF9000254B2C2202FB053CBCE80F00AEE80F003D
:10CFA000BCE80F00AEE80F009CE807008EE8070021
:10CFB0006B1C5A4203F0070302F0070258BF5342AA
:10CFC00033701A4A1378013B13700DF10A020021E5
:10CFD0001348FDF7B5FB0DF10C0CA6460BAE6546EC
:10CFE0000FCDCEF80000CEF80410CEF80820CEF811
:10CFF0000C30AC460EF1100EB542F0D1BCE8070083
:10D00000CEF80000CEF80410CEF8082020460EB06E
:10D0100070BD2C22002103A8FBF7C2FED5E700BF9C
:10D020000012001021B6002024B6002020B60020F7
:10D0300030B587B0044605F00FF9254B1C706CB372
:10D04000244B1B788DF80F30234C012500950DF1F2
:10D050000F0307222178312003F03DFF00230493C2
:10D060008DF814301D4B1B78AB4214BF00230123F5
:10D070008DF810300523009304AB0622217831206F
:10D0800003F029FF2A462178312003F002FF1A22FB
:10D090002178312003F0FDFE07B030BD05460020A9
:10D0A0000F4B18700F4B18700F4B187006F05EF88E
:10D0B0000E4B1B7843B10D4B00221A70044B1B78AA
:10D0C000AB700123AB71E7E701236B71F6E700BF9B
:10D0D00098B7002085B70020B0B700208DB700209A
:10D0E00099B70020B2B70020B1B7002084B7002064
:10D0F00008B502464FF410600FF0C0FC08BD08B53B
:10D1000002464FF410600FF041FA80B208BD0000F3
:10D1100000B583B00DF10600FEF7D4FF094B1B6884
:10D12000834207D9084A13685168013341F100016D
:10D1300013605160034B1860034B196803B05DF82E
:10D1400004FB00BF10B6002008B600202DE9F04710
:10D15000A0B06D4B1C936D4B1D936D4B1E931CAB80
:10D1600093E8070003F0C0FD6A4B18706A4B6B4AE6
:10D170001A606B4B6B4A1A6002F07EFD05466A4BE3
:10D1800000241C605C6005F067F8012303701694AE
:10D190001794189419941A94ADF86C4010A804F0E0
:10D1A000DDFC78B1162210A916A815F0D3FD78B9C8
:10D1B0000B2200215D48FBF7F3FD002601272D24FB
:10D1C000B046E8E01622214610A8FBF7E9FDE9E7A2
:10D1D0000DF17E0301930020009003460D220146CD
:10D1E000FEF7CEFEE4E710A804F0B8FC002835D026
:10D1F000DFF820911623009310AB142299F8001049
:10D20000322003F068FE4A4B1A78012A14BF00222C
:10D210000122484B1A704FF0000A83F801A083F8EE
:10D2200002A083F803A083F804A00522009206223E
:10D2300099F80010322003F04EFE3F4B1B788DF81A
:10D2400014300123009305AB072299F80010322017
:10D2500003F041FE394B83F800A0B2E01622002112
:10D2600010A8FBF79DFDC3E702222A4B1978322054
:10D2700003F00FFE324B1A78324B1A70A8E0254F9C
:10D2800017223978322003F004FE18223978322030
:10D2900003F0FFFD00279EE0DFF88C900DF10808F9
:10D2A00040460DF07DFD98E8030089E80300264B19
:10D2B0001B789BB9D9F804204FF47A7303FB002242
:10D2C00044F620639A4200D900221F4B01211970B5
:10D2D0008DE0154B00221A605A6088E0002286E03B
:10D2E00005230093134B06220A490978312003F0E5
:10D2F000F2FD98E00123009305AB07220549097868
:10D30000312003F0E8FDA6E0FFD00008F1D00008CE
:10D3100035D70008B0B700201CB6002011D1000896
:10D3200018B6002095D40008A8B700209CB70020AC
:10D330008DB7002088B7002085B70020540000205A
:10D340008FB700208EB7002014B60020484B012272
:10D350001A70312C00F281800134E4B2454B187808
:10D3600003F0FCFEFFF7AEFD38B905A8FFF7FCFDA2
:10D3700005A9404B187803F0F7FCFFF7C9FE03F04E
:10D3800081FC0DF17E0301930020009014230246DE
:10D390000146FEF7F5FD384B1B780BB106B91E466A
:10D3A00002F070FC354B187002F066FC344B1870BC
:10D3B000344B1B78002BC9D02D4B1B78002B7FF4EE
:10D3C00012AF314B1A782F4B1B789A427FF44CAF37
:10D3D000002F7FF454AF294B1B78434526D0012BF7
:10D3E0003FF45AAFB8F1010F3FF473AF0022234B63
:10D3F0001978012914BF00210121244B1970110E45
:10D400005970110C9970110AD9701A710522009285
:10D41000062218490978322003F05DFD1C4B1B7869
:10D42000002B7FF45DAF154B93F80080144B93F8FD
:10D430000090A9458DD08DF814900123009305AB81
:10D4400007220C490978322003F045FD104B1B7868
:10D45000002B7FF44FAF4D467BE70024009423461A
:10D46000224604490978322003F09CFC74E700BF8F
:10D4700054000020B0B70020A7B700208DB70020CF
:10D4800085B700208FB700208EB7002088B7002016
:10D4900098B70020827802F00F03022B03D02F4BA5
:10D4A0001B78002B58D010B5C37853BB4379012BA0
:10D4B0001BD0082B1FD043BB322A26D1284A137811
:10D4C0000133DBB21370022B1FD90024254B1C70D3
:10D4D000254B1C70214B1C70244B1C70244B1C7062
:10D4E000FFF716FE1E4B1C700FE0811C90F83800F1
:10D4F00003F060FE09E0811C90F8380003F05AFE4A
:10D5000003E0013BDBB2012B00D910BD4379022BB4
:10D5100017D00CD8012BF8D1104B1B78002BF4D06E
:10D520000122144B1978312003F0B3FCEDE7063BE0
:10D53000DBB2012BE9D8811C90F8380003F03AFEE9
:10D54000E3E7084B1B78002BDFD00222094B197848
:10D55000322003F09EFCD8E7704700BF98B7002048
:10D5600015B600208FB700208EB7002099B7002095
:10D5700084B70020B0B70020014B1878704700BF77
:10D5800098B7002038B50446FBF718FBC0B26178A5
:10D590003039C9B2022309E001EB81014900C9B267
:10D5A0000133DBB20A44D2B2303AD1B2E25C2E2A65
:10D5B00001D08342F0D35A1CD2B20233DBB2A25C58
:10D5C000303AD2B214F803C0BCF12E0F0FD0834210
:10D5D0000DD202EB82025200D2B20133DBB294448C
:10D5E0005FFA8CFCACF1300C5FFA8CF2EAE75D1C60
:10D5F000EDB20233DBB214F805E0AEF1300E5FFAA3
:10D600008EFE0EE00EEB8E0E4FEA4E0E5FFA8EFE91
:10D610000133DBB2F4445FFA8CFCACF1300C5FFAFE
:10D620008CFE14F803C0BCF12E0F01D08342E9D365
:10D630005D1CEDB20233DBB214F805C0ACF1300C66
:10D640001FFA8CFC0DE00CEB8C0C4FEA4C0C1FFA13
:10D650008CFC5D1CE35C63449BB2303B1FFA83FC93
:10D66000EBB28342EFD3044B19705A7083F802E097
:10D6700083F803C038BD00BF94B7002010B594B044
:10D68000044601238DF8273000228DF82520312211
:10D690008DF824200A228DF826208DF828008DF898
:10D6A0002930EC460DF1340EBEE80F00ACE80F0057
:10D6B0009EE807008CE8070009AB0FCBFFF70AFCD8
:10D6C00020B12CB1044B01221A70204614B010BDB9
:10D6D000024B01221A70F9E790B7002091B70020A1
:10D6E00010B5044604F0B8FD0E4B1B78837084F02F
:10D6F00001034371C3702CB10B4B1B782BB90B4B3F
:10D700001B784BB90A4B1C7010BD074B00221A70D6
:10D710000120FFF7B3FFF2E70020044B1870FFF77A
:10D72000ADFFEFE798B7002090B7002091B7002039
:10D7300099B70020F0B58DB004AF044604F08CFD1D
:10D7400005466378032B00F2CC82DFE813F0040077
:10D75000220235019700E378082B00F28180DFE890
:10D7600003F0057F7F132B437F7F5400207803F065
:10D77000E9FBA64B1978638D029300220192009277
:10D78000134603F045FB7EE02379012B10D0A04B1C
:10D7900000221A70207803F0D5FB9C4B1978638D1A
:10D7A0000293002201920092134603F031FB6AE0DB
:10D7B000974B01221A70EDE72379012B10D0954B7E
:10D7C00000221A70207803F0BDFB904B1978638D0E
:10D7D0000293002201920092134603F019FB52E0DB
:10D7E0008C4B01221A70EDE78B4B01221A702078C6
:10D7F00003F0A8FB854B1978638D029300220192F8
:10D800000092134603F004FB3DE0012005F0AEFC5E
:10D8100007F108050A22211D284616F01FF995E890
:10D82000070004F06DFE68B1207803F08BFB774BA6
:10D830001978638D0293002201920092134603F03F
:10D84000E7FA20E0207803F07DFB704B1978638DB8
:10D8500002930023019300930D2203F0D9FA12E002
:10D86000207803F06FFB694B1978638D02930023D6
:10D8700001930093012203F0CBFA04E0E3782BB18B
:10D880000D2B00F084802437BD46F0BD2378232B78
:10D8900042D0A2780A2AF6D9A179E37903EB0123D1
:10D8A0009BB2013B192BEED801A151F823F000BF28
:10D8B00045D9000837D9000887D8000887D800085C
:10D8C00087D8000887D8000887D8000887D80008BC
:10D8D00087D8000887D8000887D8000887D80008AC
:10D8E00087D8000887D8000887D8000887D800089C
:10D8F00087D8000887D8000887D8000887D800088C
:10D9000087D8000887D8000853D9000875D90008BF
:10D9100087D8000883D90008404B01221A70404B79
:10D9200000221A70072002F049FF0028B1D007201A
:10D9300002F0B2FFADE7207A003818BF0120FFF7F0
:10D9400077FBA0E7207A003818BF0120FFF7C8FE58
:10D9500099E76E46D31D03F4FC73ADEB030D04ADE4
:10D9600004F10801284616F079F82846FFF70AFE68
:10D97000B54688E7042204F108012A4816F06EF83B
:10D9800081E7237A003B18BF0123AB717BE7237942
:10D99000607900EB032080B203F05CF901460028B7
:10D9A0003FF471AF4379082B7FF46DAF0231174B11
:10D9B000187803F0FFFB66E7E378222B00F2DB80A8
:10D9C000DFE813F03200D900D900D900D900D9001E
:10D9D0009900B000D900D900D900D900D900D900E8
:10D9E000D900D900D900D9006800D9007C00D9003D
:10D9F000D900D900D900D900D900D900D900D9005F
:10DA0000D900D900D900D900C40000BFB0B70020A8
:10DA1000B2B70020B1B7002084B700208FB7002034
:10DA200015B6002050000020974B1B6813B9964B89
:10DA30005B68BBB107F108000DF0B2F992490B68C1
:10DA4000BA68D21A4FF47A7303FB02F2FB68496892
:10DA50008B4204D203F57A73FB60A2F57A72FB68FD
:10DA60005B1A13441A0E3A721A0C7A721A0ABA72B4
:10DA7000FB72207803F066FA844B1978638D029369
:10DA80000423019307F10803009300231A4603F0CF
:10DA9000BFF9F8E607F108060025BD60FD602078B3
:10DAA00003F050FA794B1978638D029308230193A0
:10DAB000009612232A4603F0ABF9E4E607F10800CA
:10DAC00004F04CF880B1207803F03CFA6F4B1978E1
:10DAD000638D02931623019307F108030093142327
